{
  "_format": "hh-sol-artifact-1",
  "contractName": "Transactions",
  "sourceName": "contracts/Transaction.sol",
  "abi": [
    {
      "anonymous": false,
      "inputs": [
        {
          "indexed": false,
          "internalType": "address",
          "name": "from",
          "type": "address"
        },
        {
          "indexed": false,
          "internalType": "address",
          "name": "receiver",
          "type": "address"
        },
        {
          "indexed": false,
          "internalType": "uint256",
          "name": "amount",
          "type": "uint256"
        },
        {
          "indexed": false,
          "internalType": "string",
          "name": "message",
          "type": "string"
        },
        {
          "indexed": false,
          "internalType": "uint256",
          "name": "timestamp",
          "type": "uint256"
        },
        {
          "indexed": false,
          "internalType": "string",
          "name": "keyword",
          "type": "string"
        }
      ],
      "name": "Transfer",
      "type": "event"
    },
    {
      "inputs": [
        {
          "internalType": "address",
          "name": "receiver",
          "type": "address"
        },
        {
          "internalType": "uint256",
          "name": "amount",
          "type": "uint256"
        },
        {
          "internalType": "string",
          "name": "message",
          "type": "string"
        },
        {
          "internalType": "string",
          "name": "keyword",
          "type": "string"
        }
      ],
      "name": "addToBlockchain",
      "outputs": [],
      "stateMutability": "nonpayable",
      "type": "function"
    },
    {
      "inputs": [
        {
          "internalType": "address",
          "name": "receiver",
          "type": "address"
        }
      ],
      "name": "addTransaction",
      "outputs": [],
      "stateMutability": "nonpayable",
      "type": "function"
    },
    {
      "inputs": [],
      "name": "getAllTransactions",
      "outputs": [
        {
          "components": [
            {
              "internalType": "address",
              "name": "sender",
              "type": "address"
            },
            {
              "internalType": "address",
              "name": "receiver",
              "type": "address"
            },
            {
              "internalType": "uint256",
              "name": "amount",
              "type": "uint256"
            },
            {
              "internalType": "string",
              "name": "message",
              "type": "string"
            },
            {
              "internalType": "uint256",
              "name": "timestamp",
              "type": "uint256"
            },
            {
              "internalType": "string",
              "name": "keyword",
              "type": "string"
            }
          ],
          "internalType": "struct Transactions.TransferStruct[]",
          "name": "",
          "type": "tuple[]"
        }
      ],
      "stateMutability": "view",
      "type": "function"
    },
    {
      "inputs": [],
      "name": "getTransactionCount",
      "outputs": [
        {
          "internalType": "uint256",
          "name": "",
          "type": "uint256"
        }
      ],
      "stateMutability": "view",
      "type": "function"
    }
  ],
  "bytecode": "0x608060405234801561001057600080fd5b50610b8f806100206000396000f3fe608060405234801561001057600080fd5b506004361061004c5760003560e01c806327506f53146100515780632e7700f01461006f578063b65ce8d51461008d578063cc2d7ead146100a9575b600080fd5b6100596100c5565b604051610066919061086e565b60405180910390f35b610077610308565b6040516100849190610890565b60405180910390f35b6100a760048036038101906100a29190610633565b610311565b005b6100c360048036038101906100be919061065c565b610377565b005b60606001805480602002602001604051908101604052809291908181526020016000905b828210156102ff57838290600052602060002090600602016040518060c00160405290816000820160009054906101000a900473ffffffffffffffffffffffffffffffffffffffff1673ffffffffffffffffffffffffffffffffffffffff1673ffffffffffffffffffffffffffffffffffffffff1681526020016001820160009054906101000a900473ffffffffffffffffffffffffffffffffffffffff1673ffffffffffffffffffffffffffffffffffffffff1673ffffffffffffffffffffffffffffffffffffffff168152602001600282015481526020016003820180546101d290610a2a565b80601f01602080910402602001604051908101604052809291908181526020018280546101fe90610a2a565b801561024b5780601f106102205761010080835404028352916020019161024b565b820191906000526020600020905b81548152906001019060200180831161022e57829003601f168201915b505050505081526020016004820154815260200160058201805461026e90610a2a565b80601f016020809104026020016040519081016040528092919081815260200182805461029a90610a2a565b80156102e75780601f106102bc576101008083540402835291602001916102e7565b820191906000526020600020905b8154815290600101906020018083116102ca57829003601f168201915b505050505081525050815260200190600101906100e9565b50505050905090565b60008054905090565b6002819080600181540180825580915050600190039060005260206000200160009091909190916101000a81548173ffffffffffffffffffffffffffffffffffffffff021916908373ffffffffffffffffffffffffffffffffffffffff16021790555050565b60016000808282546103899190610956565b9250508190555060006040518060c001604052803373ffffffffffffffffffffffffffffffffffffffff1681526020018673ffffffffffffffffffffffffffffffffffffffff168152602001858152602001848152602001428152602001838152509050600181908060018154018082558091505060019003906000526020600020906006020160009091909190915060008201518160000160006101000a81548173ffffffffffffffffffffffffffffffffffffffff021916908373ffffffffffffffffffffffffffffffffffffffff16021790555060208201518160010160006101000a81548173ffffffffffffffffffffffffffffffffffffffff021916908373ffffffffffffffffffffffffffffffffffffffff1602179055506040820151816002015560608201518160030190805190602001906104cd9291906104fe565b506080820151816004015560a08201518160050190805190602001906104f49291906104fe565b5050505050505050565b82805461050a90610a2a565b90600052602060002090601f01602090048101928261052c5760008555610573565b82601f1061054557805160ff1916838001178555610573565b82800160010185558215610573579182015b82811115610572578251825591602001919060010190610557565b5b5090506105809190610584565b5090565b5b8082111561059d576000816000905550600101610585565b5090565b60006105b46105af846108d0565b6108ab565b9050828152602081018484840111156105cc57600080fd5b6105d78482856109e8565b509392505050565b6000813590506105ee81610b2b565b92915050565b600082601f83011261060557600080fd5b81356106158482602086016105a1565b91505092915050565b60008135905061062d81610b42565b92915050565b60006020828403121561064557600080fd5b6000610653848285016105df565b91505092915050565b6000806000806080858703121561067257600080fd5b6000610680878288016105df565b94505060206106918782880161061e565b935050604085013567ffffffffffffffff8111156106ae57600080fd5b6106ba878288016105f4565b925050606085013567ffffffffffffffff8111156106d757600080fd5b6106e3878288016105f4565b91505092959194509250565b60006106fb83836107c0565b905092915050565b61070c816109ac565b82525050565b600061071d82610911565b6107278185610934565b93508360208202850161073985610901565b8060005b85811015610775578484038952815161075685826106ef565b945061076183610927565b925060208a0199505060018101905061073d565b50829750879550505050505092915050565b60006107928261091c565b61079c8185610945565b93506107ac8185602086016109f7565b6107b581610b1a565b840191505092915050565b600060c0830160008301516107d86000860182610703565b5060208301516107eb6020860182610703565b5060408301516107fe6040860182610850565b50606083015184820360608601526108168282610787565b915050608083015161082b6080860182610850565b5060a083015184820360a08601526108438282610787565b9150508091505092915050565b610859816109de565b82525050565b610868816109de565b82525050565b600060208201905081810360008301526108888184610712565b905092915050565b60006020820190506108a5600083018461085f565b92915050565b60006108b56108c6565b90506108c18282610a5c565b919050565b6000604051905090565b600067ffffffffffffffff8211156108eb576108ea610aeb565b5b6108f482610b1a565b9050602081019050919050565b6000819050602082019050919050565b600081519050919050565b600081519050919050565b6000602082019050919050565b600082825260208201905092915050565b600082825260208201905092915050565b6000610961826109de565b915061096c836109de565b9250827fffffffffffffffffffffffffffffffffffffffffffffffffffffffffffffffff038211156109a1576109a0610a8d565b5b828201905092915050565b60006109b7826109be565b9050919050565b600073ffffffffffffffffffffffffffffffffffffffff82169050919050565b6000819050919050565b82818337600083830152505050565b60005b83811015610a155780820151818401526020810190506109fa565b83811115610a24576000848401525b50505050565b60006002820490506001821680610a4257607f821691505b60208210811415610a5657610a55610abc565b5b50919050565b610a6582610b1a565b810181811067ffffffffffffffff82111715610a8457610a83610aeb565b5b80604052505050565b7f4e487b7100000000000000000000000000000000000000000000000000000000600052601160045260246000fd5b7f4e487b7100000000000000000000000000000000000000000000000000000000600052602260045260246000fd5b7f4e487b7100000000000000000000000000000000000000000000000000000000600052604160045260246000fd5b6000601f19601f8301169050919050565b610b34816109ac565b8114610b3f57600080fd5b50565b610b4b816109de565b8114610b5657600080fd5b5056fea2646970667358221220094603c55ada044155e9747de6a173b98dbc3787255ca6ea3aa9b9b5fa9ff1ef64736f6c63430008040033",
  "linkReferences": {},
  "deployedLinkReferences": {}
}