{
  "_format": "hh-sol-artifact-1",
  "contractName": "Transactions",
  "sourceName": "contracts/Transaction.sol",
  "abi": [
    {
      "anonymous": false,
      "inputs": [
        {
          "indexed": false,
          "internalType": "address",
          "name": "from",
          "type": "address"
        },
        {
          "indexed": false,
          "internalType": "address",
          "name": "receiver",
          "type": "address"
        },
        {
          "indexed": false,
          "internalType": "uint256",
          "name": "amount",
          "type": "uint256"
        },
        {
          "indexed": false,
          "internalType": "string",
          "name": "message",
          "type": "string"
        },
        {
          "indexed": false,
          "internalType": "uint256",
          "name": "timestamp",
          "type": "uint256"
        },
        {
          "indexed": false,
          "internalType": "string",
          "name": "keyword",
          "type": "string"
        }
      ],
      "name": "Transfer",
      "type": "event"
    },
    {
      "inputs": [
        {
          "internalType": "address payable",
          "name": "receiver",
          "type": "address"
        },
        {
          "internalType": "uint256",
          "name": "amount",
          "type": "uint256"
        },
        {
          "internalType": "string",
          "name": "message",
          "type": "string"
        },
        {
          "internalType": "string",
          "name": "keyword",
          "type": "string"
        }
      ],
      "name": "addToBlockchain",
      "outputs": [],
      "stateMutability": "nonpayable",
      "type": "function"
    },
    {
      "inputs": [
        {
          "internalType": "address",
          "name": "receiver",
          "type": "address"
        }
      ],
      "name": "addTransaction",
      "outputs": [],
      "stateMutability": "nonpayable",
      "type": "function"
    },
    {
      "inputs": [],
      "name": "getAllTransactions",
      "outputs": [
        {
          "components": [
            {
              "internalType": "address",
              "name": "sender",
              "type": "address"
            },
            {
              "internalType": "address",
              "name": "receiver",
              "type": "address"
            },
            {
              "internalType": "uint256",
              "name": "amount",
              "type": "uint256"
            },
            {
              "internalType": "string",
              "name": "message",
              "type": "string"
            },
            {
              "internalType": "uint256",
              "name": "timestamp",
              "type": "uint256"
            },
            {
              "internalType": "string",
              "name": "keyword",
              "type": "string"
            }
          ],
          "internalType": "struct Transactions.TransferStruct[]",
          "name": "",
          "type": "tuple[]"
        }
      ],
      "stateMutability": "view",
      "type": "function"
    },
    {
      "inputs": [],
      "name": "getTransactionCount",
      "outputs": [
        {
          "internalType": "uint256",
          "name": "",
          "type": "uint256"
        }
      ],
      "stateMutability": "view",
      "type": "function"
    }
  ],
  "bytecode": "0x608060405234801561001057600080fd5b50610bcd806100206000396000f3fe608060405234801561001057600080fd5b506004361061004c5760003560e01c806327506f53146100515780632e7700f01461006f578063b65ce8d51461008d578063cc2d7ead146100a9575b600080fd5b6100596100c5565b6040516100669190610883565b60405180910390f35b610077610308565b60405161008491906108a5565b60405180910390f35b6100a760048036038101906100a29190610648565b610311565b005b6100c360048036038101906100be9190610671565b610377565b005b60606001805480602002602001604051908101604052809291908181526020016000905b828210156102ff57838290600052602060002090600602016040518060c00160405290816000820160009054906101000a900473ffffffffffffffffffffffffffffffffffffffff1673ffffffffffffffffffffffffffffffffffffffff1673ffffffffffffffffffffffffffffffffffffffff1681526020016001820160009054906101000a900473ffffffffffffffffffffffffffffffffffffffff1673ffffffffffffffffffffffffffffffffffffffff1673ffffffffffffffffffffffffffffffffffffffff168152602001600282015481526020016003820180546101d290610a51565b80601f01602080910402602001604051908101604052809291908181526020018280546101fe90610a51565b801561024b5780601f106102205761010080835404028352916020019161024b565b820191906000526020600020905b81548152906001019060200180831161022e57829003601f168201915b505050505081526020016004820154815260200160058201805461026e90610a51565b80601f016020809104026020016040519081016040528092919081815260200182805461029a90610a51565b80156102e75780601f106102bc576101008083540402835291602001916102e7565b820191906000526020600020905b8154815290600101906020018083116102ca57829003601f168201915b505050505081525050815260200190600101906100e9565b50505050905090565b60008054905090565b6002819080600181540180825580915050600190039060005260206000200160009091909190916101000a81548173ffffffffffffffffffffffffffffffffffffffff021916908373ffffffffffffffffffffffffffffffffffffffff16021790555050565b6001600080828254610389919061096b565b9250508190555060006040518060c001604052803373ffffffffffffffffffffffffffffffffffffffff1681526020018673ffffffffffffffffffffffffffffffffffffffff168152602001858152602001848152602001428152602001838152509050600181908060018154018082558091505060019003906000526020600020906006020160009091909190915060008201518160000160006101000a81548173ffffffffffffffffffffffffffffffffffffffff021916908373ffffffffffffffffffffffffffffffffffffffff16021790555060208201518160010160006101000a81548173ffffffffffffffffffffffffffffffffffffffff021916908373ffffffffffffffffffffffffffffffffffffffff1602179055506040820151816002015560608201518160030190805190602001906104cd9291906104fe565b506080820151816004015560a08201518160050190805190602001906104f49291906104fe565b5050505050505050565b82805461050a90610a51565b90600052602060002090601f01602090048101928261052c5760008555610573565b82601f1061054557805160ff1916838001178555610573565b82800160010185558215610573579182015b82811115610572578251825591602001919060010190610557565b5b5090506105809190610584565b5090565b5b8082111561059d576000816000905550600101610585565b5090565b60006105b46105af846108e5565b6108c0565b9050828152602081018484840111156105cc57600080fd5b6105d7848285610a0f565b509392505050565b6000813590506105ee81610b52565b92915050565b60008135905061060381610b69565b92915050565b600082601f83011261061a57600080fd5b813561062a8482602086016105a1565b91505092915050565b60008135905061064281610b80565b92915050565b60006020828403121561065a57600080fd5b6000610668848285016105df565b91505092915050565b6000806000806080858703121561068757600080fd5b6000610695878288016105f4565b94505060206106a687828801610633565b935050604085013567ffffffffffffffff8111156106c357600080fd5b6106cf87828801610609565b925050606085013567ffffffffffffffff8111156106ec57600080fd5b6106f887828801610609565b91505092959194509250565b600061071083836107d5565b905092915050565b610721816109c1565b82525050565b600061073282610926565b61073c8185610949565b93508360208202850161074e85610916565b8060005b8581101561078a578484038952815161076b8582610704565b94506107768361093c565b925060208a01995050600181019050610752565b50829750879550505050505092915050565b60006107a782610931565b6107b1818561095a565b93506107c1818560208601610a1e565b6107ca81610b41565b840191505092915050565b600060c0830160008301516107ed6000860182610718565b5060208301516108006020860182610718565b5060408301516108136040860182610865565b506060830151848203606086015261082b828261079c565b91505060808301516108406080860182610865565b5060a083015184820360a0860152610858828261079c565b9150508091505092915050565b61086e81610a05565b82525050565b61087d81610a05565b82525050565b6000602082019050818103600083015261089d8184610727565b905092915050565b60006020820190506108ba6000830184610874565b92915050565b60006108ca6108db565b90506108d68282610a83565b919050565b6000604051905090565b600067ffffffffffffffff821115610900576108ff610b12565b5b61090982610b41565b9050602081019050919050565b6000819050602082019050919050565b600081519050919050565b600081519050919050565b6000602082019050919050565b600082825260208201905092915050565b600082825260208201905092915050565b600061097682610a05565b915061098183610a05565b9250827fffffffffffffffffffffffffffffffffffffffffffffffffffffffffffffffff038211156109b6576109b5610ab4565b5b828201905092915050565b60006109cc826109e5565b9050919050565b60006109de826109e5565b9050919050565b600073ffffffffffffffffffffffffffffffffffffffff82169050919050565b6000819050919050565b82818337600083830152505050565b60005b83811015610a3c578082015181840152602081019050610a21565b83811115610a4b576000848401525b50505050565b60006002820490506001821680610a6957607f821691505b60208210811415610a7d57610a7c610ae3565b5b50919050565b610a8c82610b41565b810181811067ffffffffffffffff82111715610aab57610aaa610b12565b5b80604052505050565b7f4e487b7100000000000000000000000000000000000000000000000000000000600052601160045260246000fd5b7f4e487b7100000000000000000000000000000000000000000000000000000000600052602260045260246000fd5b7f4e487b7100000000000000000000000000000000000000000000000000000000600052604160045260246000fd5b6000601f19601f8301169050919050565b610b5b816109c1565b8114610b6657600080fd5b50565b610b72816109d3565b8114610b7d57600080fd5b50565b610b8981610a05565b8114610b9457600080fd5b5056fea2646970667358221220b60006b20cd2b636b01be2d13e27618c802261aa53954b4902e33344750e161164736f6c63430008040033",
  "linkReferences": {},
  "deployedLinkReferences": {}
}